:020000040800F2
:1000000000000320690C0008BD2B0008BF2B00086E
:10001000C12B0008C32B0008C52B000800000000FE
:10002000000000000000000000000000618B0008DC
:10003000C72B000800000000F18B00086D84000849
:10004000B90C0008B90C0008B90C0008B90C00087C
:10005000B90C0008B90C0008B90C0008B90C00086C
:10006000B90C0008B90C0008B90C0008B90C00085C
:10007000B90C0008B90C0008B90C0008B90C00084C
:10008000B90C0008B90C0008B90C0008B90C00083C
:10009000B90C0008B90C0008B90C0008B90C00082C
:1000A000B90C0008B90C0008B90C0008B90C00081C
:1000B000B90C0008B90C0008B90C0008B90C00080C
:1000C000B90C0008B90C0008B90C0008B90C0008FC
:1000D000B90C0008B90C0008B90C0008B90C0008EC
:1000E000B90C0008B90C0008B90C0008B90C0008DC
:1000F000B90C0008B90C0008B90C0008B90C0008CC
:10010000B90C0008B90C0008B90C0008B90C0008BB
:10011000B90C0008B90C0008C92B0008B90C00087C
:10012000B90C0008B90C0008B90C0008B90C00089B
:10013000B90C0008B90C0008B90C0008B90C00088B
:10014000B90C0008B90C0008B90C0008B90C00087B
:10015000B90C0008B90C0008B90C0008B90C00086B
:10016000B90C0008B90C0008B90C0008B90C00085B
:10017000B90C0008B90C0008B90C00080000000018
:10018000B90C0008B90C0008B90C0008B90C00083B
:10019000B90C0008B90C0008B90C0008B90C00082B
:0C01A000D52B0008B90C0008E12B00086A
:1001B00010B5054C237833B9044B13B10448AFF3A1
:1001C00000800123237010BD800300200000000088
:1001D000CC54020808B5034B1BB103490348AFF3E5
:1001E000008008BD0000000084030020CC540208F9
:1001F00001F0FF01102A2BDB10F0070F08D010F8D8
:10020000013B013A8B422DD010F0070F42B3F6D1DB
:10021000F0B441EA012141EA014122F007047FF0F4
:1002200000070023F0E80256083C85EA010586EA4B
:10023000010685FA47F5A3FA87F586FA47F6A5FA87
:1002400087F68EB9EED1F0BC01F0FF0102F0070293
:1002500032B110F8013B013A83EA010313B1F8D13E
:100260000020704701387047002D06BF354603381F
:10027000073815F0010F07D1013015F4807F02BF58
:10028000013015F4C03F0130F0BC0138704700BFA9
:1002900070B54FF0FF0C4CF4E06C1CEA11541DBF1C
:1002A0001CEA135594EA0C0F95EA0C0F00F0DEF8E7
:1002B0002C4481EA030621EA4C5123EA4C5350EACC
:1002C000013518BF52EA033541F4801143F480131D
:1002D00038D0A0FB02CE4FF00005E1FB02E506F0AE
:1002E0000042E0FB03E54FF00006E1FB03569CF003
:1002F000000F18BF4EF0010EA4F1FF04B6F5007F09
:1003000064F5407404D25FEA4E0E6D4146EB06067A
:1003100042EAC62141EA55514FEAC52040EA5E5003
:100320004FEACE2EB4F1FD0C88BFBCF5E06F1ED8AD
:10033000BEF1004F08BF5FEA500E50F1000041EBE4
:10034000045170BD06F0004646EA010140EA020091
:1003500081EA0301B4EB5C04C2BFD4EB0C0541EAB3
:10036000045170BD41F480114FF0000E013C00F3C8
:10037000AB8014F1360FDEBF002001F0004170BDEC
:10038000C4F10004203C35DA0C341BDC04F1140405
:10039000C4F1200500FA05F320FA04F001FA05F291
:1003A00040EA020001F0004221F0004110EBD3705E
:1003B00021FA04F642EB06015EEA430E08BF20EA8A
:1003C000D37070BDC4F10C04C4F1200500FA04F32D
:1003D00020FA05F001FA04F240EA020001F00041BF
:1003E00010EBD37041F100015EEA430E08BF20EA32
:1003F000D37070BDC4F1200500FA05F24EEA020E7A
:1004000020FA04F301FA05F243EA020321FA04F0A8
:1004100001F0004121FA04F220EA020000EBD3705F
:100420005EEA430E08BF20EAD37070BD94F0000F5F
:100430000FD101F00046400041EB010111F4801F93
:1004400008BF013CF7D041EA060195F0000F18BF44
:10045000704703F00046520043EB030313F4801F80
:1004600008BF013DF7D043EA0603704794EA0C0F3A
:100470000CEA135518BF95EA0C0F0CD050EA410650
:1004800018BF52EA4306D1D181EA030101F00041CD
:100490004FF0000070BD50EA410606BF10461946F5
:1004A00052EA430619D094EA0C0F02D150EA013601
:1004B00013D195EA0C0F05D152EA03361CBF104642
:1004C00019460AD181EA030101F0004141F0FE41E1
:1004D00041F470014FF0000070BD41F0FE4141F465
:1004E000780170BD81F0004102E000BF83F000435D
:1004F00030B54FEA41044FEA430594EA050F08BFBF
:1005000090EA020F1FBF54EA000C55EA020C7FEA82
:10051000645C7FEA655C00F0E2804FEA5454D4EBFF
:100520005555B8BF6D420CDD2C4480EA020281EAC9
:10053000030382EA000083EA010180EA020281EA01
:100540000303362D88BF30BD11F0004F4FEA013153
:100550004FF4801C4CEA113102D0404261EB410162
:1005600013F0004F4FEA03334CEA133302D05242E8
:1005700063EB430394EA050F00F0A780A4F10104A4
:10058000D5F1200E0DDB02FA0EFC22FA05F28018DE
:1005900041F1000103FA0EF2801843FA05F35941C4
:1005A0000EE0A5F120050EF1200E012A03FA0EFC43
:1005B00028BF4CF0020C43FA05F3C01851EBE3716D
:1005C00001F0004507D54FF0000EDCF1000C7EEB8A
:1005D00000006EEB0101B1F5801F1BD3B1F5001FC8
:1005E0000CD349085FEA30004FEA3C0C04F10104E7
:1005F0004FEA445212F5800F80F09A80BCF1004F10
:1006000008BF5FEA500C50F1000041EB045141EA91
:10061000050130BD5FEA4C0C404141EB0101013C5A
:1006200028BFB1F5801FE9D291F0000F04BF014649
:100630000020B1FA81F308BF2033A3F10B03B3F11B
:1006400020020CDA0C3208DD02F1140CC2F10C02AB
:1006500001FA0CF021FA02F10CE002F11402D8BF09
:10066000C2F1200C01FA02F120FA0CFCDCBF41EAD5
:100670000C019040E41AA2BF01EB0451294330BDA4
:100680006FEA04041F3C1CDA0C340EDC04F1140481
:10069000C4F1200220FA04F001FA02F340EA030058
:1006A00021FA04F345EA030130BDC4F10C04C4F19E
:1006B000200220FA02F001FA04F340EA030029467E
:1006C00030BD21FA04F0294630BD94F0000F83F4C8
:1006D000801306BF81F480110134013D4EE77FEAAB
:1006E000645C18BF7FEA655C29D094EA050F08BFF7
:1006F00090EA020F05D054EA000C04BF19461046D8
:1007000030BD91EA030F1EBF0021002030BD5FEA1B
:10071000545C05D14000494128BF41F0004130BD43
:1007200014F580043CBF01F5801130BD01F0004597
:1007300045F0FE4141F470014FF0000030BD7FEA0A
:10074000645C1ABF194610467FEA655C1CBF0B4605
:10075000024650EA013406BF52EA033591EA030F1C
:1007600041F4002130BD00BF90F0000F04BF002114
:10077000704730B54FF4806404F132044FF0000547
:100780004FF0000150E700BF90F0000F04BF0021C0
:10079000704730B54FF4806404F1320410F0004526
:1007A00048BF40424FF000013EE700BF42004FEA21
:1007B000E2014FEA31014FEA02701FBF12F07F439E
:1007C00093F07F4F81F06051704732F07F4208BF55
:1007D000704793F07F4F04BF41F40021704730B55C
:1007E0004FF4607401F0004521F000411CE700BFA8
:1007F00050EA010208BF704730B54FF000050AE02B
:1008000050EA010208BF704730B511F0004502D52B
:10081000404261EB41014FF4806404F132045FEA2D
:10082000915C3FF4D8AE4FF003025FEADC0C18BFD6
:1008300003325FEADC0C18BF033202EBDC02C2F1C8
:10084000200300FA03FC20FA02F001FA03FE40EA5A
:100850000E0021FA02F11444BDE600BF4A0011D295
:1008600012F5001211D20DD56FF47873B3EB62520A
:100870000ED44FEAC12343F0004343EA505323FA16
:1008800002F070474FF00000704750EA013002D18B
:100890004FF0FF3070474FF0000070477BB972B9DE
:1008A0000029BEBF00204FF0004106E008BF00282D
:1008B0001CBF6FF000414FF0FF3000F0D3B9ADF135
:1008C000080C6DE904CE002909DB002B1ADB00F0CF
:1008D0004DF8DDF804E0DDE9022304B07047404242
:1008E00061EB4101002B1BDB00F040F8DDF804E078
:1008F000DDE9022304B0404261EB4101524263EB67
:1009000043037047524263EB430300F02FF8DDF8D6
:1009100004E0DDE9022304B0404261EB410170478D
:10092000524263EB430300F021F8DDF804E0DDE917
:10093000022304B0524263EB4303704753B94AB9F0
:10094000002908BF00281CBF4FF0FF314FF0FF30D7
:1009500000F088B9ADF1080C6DE904CE00F006F89E
:10096000DDF804E0DDE9022304B070472DE9F0472B
:10097000089D8E4604468846002B4AD18A42174677
:1009800062D9B2FA82F64EB1C6F1200301FA06F836
:1009900020FA03F3B74043EA0808B4404FEA174E81
:1009A0001FFA87FCB8FBFEF1230C0EFB118843EA0B
:1009B000084301FB0CF29A4209D9FB1801F1FF3000
:1009C00080F0EA809A4240F2E78002393B449A1A6A
:1009D000A3B2B2FBFEF00EFB102243EA024300FB7F
:1009E0000CFC9C4509D9FB1800F1FF3280F0D68041
:1009F0009C4540F2D3803B44023840EA0140A3EBDF
:100A00000C0300211DB1F3400022C5E90032BDE80E
:100A1000F0878B4205D90DB1C5E9000100210846D8
:100A2000F5E7B3FA83F1002946D1734502D3824238
:100A300000F20581841A6EEB030201209046002D1E
:100A4000E5D0C5E90048E2E7002A00F09080B2FA5C
:100A500082F6002E40F0A4808A1A030C4FEA174E4B
:100A600080B2BCB20121B2FBFEFC0EFB1C2243EAA9
:100A7000024304FB0CF29A4207D9FB180CF1FF3831
:100A800002D29A4200F2E080C4469B1AB3FBFEF207
:100A90000EFB123340EA034302FB04F49C4207D9E5
:100AA000FB1802F1FF3002D29C4200F2CA800246DB
:100AB0001B1B42EA0C40A5E7C1F120068B4022FA3D
:100AC00006F71F430EFA01F420FA06F32EFA06FE8B
:100AD0004FEA1749234300FA01F81FFA87FCBEFBCF
:100AE000F9F01C0C09FB10EE44EA0E4400FB0CFE6E
:100AF000A64502FA01F209D93C1900F1FF3A80F04B
:100B00009C80A64540F2998002383C44A4EB0E0438
:100B10001FFA83FEB4FBF9F309FB13444EEA0444C5
:100B200003FB0CFCA44508D93C1903F1FF3E80F0FF
:100B30008280A4457FD9023B3C4443EA0040A4EBB9
:100B40000C04A0FB02EC64457346E14662D35FD01F
:100B50005DB1B8EB030264EB090404FA06F622FA6D
:100B600001F31E43CC40C5E9006400214FE7B1FB0F
:100B7000F2FC010C41EA0E4180B240EA01423B46E0
:100B800038463C46B846BE462026B1FBF7F1A2EBFC
:100B9000080241EA0C4166E7014618E710462CE7D7
:100BA000C6F120022EFA02F3B740B14020FA02F259
:100BB0004FEA174E0A43B3FBFEF8BCB20EFB1833E4
:100BC000110C41EA034108FB04F9B04089454FEAA2
:100BD000104380B23ED9791808F1FF3C01D2894513
:100BE0001FD8A1EB0901B1FBFEF909FB04F80EFBCC
:100BF000191192B242EA0142424529D2BA1809F1CA
:100C0000FF31C4D24245C2D2A9F102013A44BEE743
:100C1000F0459DD2BEEB02036CEB070C0138E146B8
:100C200096E7A7EB09094944A8F1020CB1FBFEF9CC
:100C300009FB04F8DBE773467FE7504666E70846A2
:100C4000FDE63B44023A33E7ACF1020C3B441CE7BF
:100C500049469CE7A1EB0901C446B1FBFEF909FB3B
:100C600004F8C4E7704700BFDFF834D0002103E088
:100C70000C4B5B58435004310B480C4B42189A42C2
:100C8000F6D30B4A02E0002342F8043B094B9A4298
:100C9000F9D304F059FE23F0ABFE01F0F3F87047EE
:100CA00000000320087806080000002064010020EE
:100CB0008003002090590120FEE7704708B500F03E
:100CC000AFFDBDE8084000F031BD00F0ABBD70479E
:100CD00010B50421044622F09FFC204610BD000000
:100CE00038B50C4B0C4C18800C4B82201980636873
:100CF000984740F6110398420AD1094D23682C60A9
:100D0000822098472B688220DB689847002038BDF6
:100D10000120FCE7A60300204C000020A4030020D3
:100D2000A80300204FF4A071F020FFF7D9BF000006
:100D3000F7B5354D2B6804461B6982209847208003
:100D400000284BD02B680DF106025B6901A98220B7
:100D50009847BDF8063040F67462934240D9ADF82A
:100D60000620BDF80630D21A92B20A2A3ED90B23C9
:100D7000B2FBF3F2254B1B889A4201D9013B9AB290
:100D8000BDF80430224840F6B8318B4230D8C3F564
:100D900071630E3301689BB20F25B3FBF5F31D4D54
:100DA0002D88AB4284BF05F1FF35ABB28B421D46A7
:100DB0008EB226D99B1B99B2174E3768BBB2BA4286
:100DC0008CBFD31A9B1A9BB219440529C8BF056072
:100DD0000368C8BF326063803368A38003B0F0BD8E
:100DE000B32B9CBFB423ADF80630BAE70022C7E7A7
:100DF000C3F56D6308339BB20E2B0168CCD8002578
:100E00002B46C91A89B2D7E7A8030020A403002003
:100E1000A0030020A60300209C03002037B56846ED
:100E20000D461446FFF784FFBDF8000030B1BDF851
:100E300002302B60BDF804302360012003B030BDC8
:100E4000032821D8DFE800F0020B12190F4B1A68B3
:100E5000B2FA82F2520904210D4805F009B80B4B91
:100E60005A68B2FA82F252090821F5E7074B9A68EC
:100E7000B2FA82F252091021EEE7044BDA68B2FAB4
:100E800082F252092021E7E7704700BFAC0300203F
:100E900000100240032821D8DFE800F0020B1219ED
:100EA0000F4B1A68003A18BF012204210D4804F0C4
:100EB000DFBF0B4B5A68003A18BF01220821F5E743
:100EC000074B9A68003A18BF01221021EEE7044B45
:100ED000DA68003A18BF01222021E7E7704700BF17
:100EE000AC0300200010024003280DD8DFE800F01A
:100EF0000206080A0421054804F0BFBF0821FAE7EA
:100F00001021F8E72021F6E7704700BF00100240EB
:100F100008B5032811D8DFE800F0020A0C0E0421FE
:100F2000074804F09FFF431E5842584108BD08215E
:100F3000F6E71021F4E72021F2E70020F3E700BFF5
:100F40000010024070B5084D00240126E0B2FFF702
:100F5000DFFF18B12B68012B18BF2E600134052C60
:100F600005F10405F2D170BDAC030020012380F827
:100F7000781080F87930704700207047034B416447
:100F8000003918BF01211970704700BF4F4C012074
:100F900000207047836B0BB10846184770474FF627
:100FA000FF707047406803689B6918477047704737
:100FB0007047000010B5044600F042FD2368034965
:100FC000D3F88C302046BDE810401847000000D010
:100FD00008B503680446D3F8803098472368204654
:100FE0009B6F984700F0ECF8236820461B6F9847EA
:100FF000292001F003FB00F0E3F8236820461B6F73
:101000009847F8E710B504460AF082FB23682046AB
:10101000D3F8AC30BDE81040184700F0F5BC00F044
:10102000F9BC00F02BBD00F0CBBC00F03BBD00F0E4
:1010300043BD00F0CFBC09F0D7BD10B57C210446FC
:1010400022F0EAFA204610BD10B590F8341090F85E
:1010500078400C4B8C421A7809D03AB90A4A0B49AD
:101060001488088810800C8001221A7010BD002A94
:10107000FCD0054A05491488088810800C8000229D
:10108000F3E700BF484C0120444C0120464C0120AE
:1010900070B50D46194635B9094B0A4A0A4840F25F
:1010A000D22123F0F5F9C0E90F52084B003A18BFDE
:1010B00001221A700368BDE87040D3F88C301847DD
:1010C0005855020890550208DE5502084E4C012082
:1010D00008B5094B1B888B4203D8084B1B889342E9
:1010E00005D9074B074A08489E2123F0D1F9074B41
:1010F0001980074B1A8008BD444C0120464C012042
:101100002356020886560208DE5502084A4C012082
:101110004C4C0120034690F87A0018B158680368D7
:101120001B68184770470000012108B500220846D7
:1011300007F026FA0A4B186028B90A4B0A4A2821F8
:101140000A4823F0A5F900220421012007F0C0FA83
:10115000074B186018B9074B034A2C21F0E708BD6C
:10116000C0030020C956020812570208415702085E
:10117000BC030020B3570208024B4FF0FF31186840
:1011800007F048BAC0030020014B186807F06EBA98
:10119000C0030020024B0021186807F03BBA00BFD3
:1011A000C0030020FFF7F0BF034804490068002394
:1011B0001A4607F0C8BA00BFBC0300200400002094
:1011C00013B5084C00231A4601A9206807F0ECFA71
:1011D00020684FF0FF33002201A907F0E5FA02B0C2
:1011E00010BD00BFBC03002003685B6C18470120E2
:1011F000704703689B6A1847FEE740F2EF3070477C
:10120000054B0360054B4FF08062C3F88820BFF3A5
:101210004F8FBFF36F8F7047B064020800E100E0AA
:1012200010B504464FF45A61FFF7EAFF204622F05A
:10123000F3F9204610BD000082B0002301930E4B4D
:101240001A6B42F400021A631A6B02F40002019254
:10125000019A1A6942F400021A611A6922F4000222
:101260001A61064B064A1A61064A5A61064B4FF04C
:1012700080629A6002B0704700380240703D0020E2
:10128000D9140008F911000800E100E008B50A28A7
:1012900009D8DFE800F006100E0808080810101042
:1012A0001000022008BD054B054A0648902123F096
:1012B000EFF80020F6E70120F4E700BFF557020839
:1012C000105802085B58020838B50C46887FFFF7B3
:1012D000DDFFA58AE28A164B2169586342EA05427E
:1012E0005A64628BD963521B1A642568082D0ED18B
:1012F0009A611A615862207F0E4A42EA0062DA61FE
:10130000E2681A620C4A5961D9601A6038BD00223D
:10131000D8611A61E1680A0A480902F4784200F4C7
:10132000FC600243C1F3C4010A439A63034AECE739
:1013300000B0024009000100012302000123030064
:1013400008B50B280BD8DFE800F00612100A0A0ACD
:101350000A0808080808022008BD0520FCE7054B1C
:10136000054A06486F2123F093F80020F4E7012096
:10137000F2E700BFF5570208CB5802085B58020895
:101380002DE9F04191F81D800C464046FFF7D8FF4B
:10139000A77F05463846FFF7D3FF06463846FFF7D6
:1013A00075FFA18A628B444B521A1A649A61228B90
:1013B000521A1A61E28A586342EA01425A64216968
:1013C0006268D963DA602068802828D0227F0FD82D
:1013D000202867D0402865D004281AD0364B45EA2B
:1013E000026545F40035B845DD6161D0334A44E01B
:1013F000B0F5807F04D0B0F5007FEFD1304800E039
:10140000304840EA0262DA61E2681A625E6259615B
:1014100032E045EA026242F40032DA61F6E7A0689F
:10142000021DDA62227F45EA026545F40035DD617E
:101430005E625961017841B1012921D0224B234AD2
:1014400023484FF48D7123F023F8DA69418822F4A0
:101450007F42013922F0100242EA0122DA610121C1
:10146000154BDA6942F02002DA61DA699206FCD49F
:1014700010229A600029B9D0164A1A60BDE8F0819E
:10148000B2F1FF01DA69408822F47F4200F1FF30B7
:1014900022F0100242EA002242F0100218BF01219D
:1014A000DA61DDE745EA0262034B42F40032B4E759
:1014B00042F20132E1E700BF00B002400123010027
:1014C000090002000A000200155902082F590208FB
:1014D0005B58020801230200024B1B68586803682E
:1014E0005B691847504C012070B5044625460A4BED
:1014F0000C30002660602672667245F8203B602240
:1015000029460AF05DFA04F55A63EE6024359D42DF
:10151000FBD1204670BD00BFB0640208034B1A68BF
:10152000D207FCD423229A60704700BF00B002406B
:101530007047000030B50F4C2568ED07FCD423251B
:101540000904A56041F001010225FF2B6563616478
:10155000E0630AD00849656241EA0363E361074B2F
:1015600022626061E060236030BDE561039BA3639C
:10157000034BF8E700B0024009000100010002003F
:101580000100030030B50E4C2568ED07FCD423257F
:101590001204A56042F001020225FF2B656362641C
:1015A000E063E16008D01B0643F00213E361054BE2
:1015B00065626061236030BD034BE3610123F9E79D
:1015C00000B0024001000200020002FF30B50B4CE7
:1015D0002568ED07FCD4232512041B06A56043F4FF
:1015E0000033022542F0010265636264E063E1605A
:1015F000E361034B65626061236030BD00B002406F
:1016000001000200012070474020704700EB81106C
:101610000830704700EB8110083070470120704798
:1016200042F2E450704742F2E45303FB01000830F9
:10163000704742F2E45303FB010008307047012079
:1016400070471020704700EB01100830704700EB26
:10165000011008307047084601F080BF10B5034BF9
:101660000360044609F017F8204610BD68650208BB
:1016700010B50446FFF7F2FF2046482121F0CCFFC9
:10168000204610BD10B5034B0360044609F003F873
:10169000204610BD3465020810B50446FFF7F2FF7E
:1016A000204642F2EC5121F0B7FF204610BD000069
:1016B00010B5034B0360044608F0EDFF204610BD53
:1016C0000065020810B50446FFF7F2FF2046182116
:1016D00021F0A2FF204610BD10B5094B036004465F
:1016E00000F518501830FFF7B9FF04F12C00FFF790
:1016F000C9FF04F11400FFF7DBFF204610BD00BF57
:101700009C65020808B50248FFF7E6FF08BD00BF68
:101710009412002010B50446FFF7DEFF204642F287
:10172000D07121F079FF204610BD00002DE9F34172
:1017300001F0D0FA054601F0D1FA00240146234613
:1017400028462246009412F00BFF274B274A1A60C6
:10175000204603F0AFF8264D264B274A27489A60CB
:1017600012F066FE2B68BFF35B8FDB0736D428468A
:1017700021F054FF90B3224C224F234B236007F1FA
:101780004C0604F1140004F12C086060C4F80880D1
:10179000E760266108F080FF1C4B6361404608F05B
:1017A0007BFF1B4BE362384608F076FF04F50053DD
:1017B00003F5CC60174AC3F8182603F04DFA224609
:1017C00007F14801304603F0BBF9304601F0C6FE90
:1017D000114822F07BFE284621F02CFF0F4802B072
:1017E000BDE8F041FFF7E6BBB44C01204004002007
:1017F0009012002060040020440400200800002013
:1018000094120020AC3800209C6502080065020894
:10181000346502086865020805170008C403002043
:10182000704700000148FFF7D3BB00BFC40300208E
:1018300070B5244E244C254D254B23603046FFF7D0
:1018400053FE284617F092FF224810F0CBFB224BA4
:101850002248DC6000224FF48071C3E91212204953
:101860001A86C3E91A121F4999671F4983F858203D
:101870000B60F02101801D485A6601801C4883F8E6
:1018800070204FF4A071C3E90422C3E90622C3E922
:101890000822C3E90A22C3E90E22C3E91022C3E9E0
:1018A0001422C3E917225A67C3E901650180114870
:1018B000018011490A70012283F834200F4A1A600E
:1018C00070BD00BFEC0400208C12002060040020DA
:1018D0004855020844040020C4030020444C012061
:1018E0000100000100000101504C01204A4C012080
:1018F000464C01204C4C0120484C0120D863020882
:101900000148FFF77DBC00BFEC04002000207047B9
:1019100081807047C1807047018170474181704765
:101920007047704770477047704710B4C4880368A9
:10193000121B84885B6D091B12B25DF8044B09B25F
:1019400018474FF6FF7383814FF0FF33036213682C
:10195000C36110607047002070478B88838001202E
:101960007047704780F82610704790F8260070473F
:1019700010B50022B1F90840B1F90A100280428086
:101980008480C18010BD0022028042808280C2809B
:1019900070470177704780ED080A704780F824107F
:1019A000704780F8251070470120704798307047C5
:1019B0008C30704784307047704770477047000024
:1019C000034B902283F85A2383F85823704700BFB3
:1019D00000E100E0094A0A49D3680A48C3F30A0350
:1019E000013B9BB20B801169C1F30A0101390180EF
:1019F0001364536B43F00103536370470068014065
:101A0000663A0020643A0020014BD3F8AC007047DE
:101A100000680140024B0122C3F8AC105A627047C3
:101A20000068014010B52C21044621F0F5FD204648
:101A300010BD10B5BC21044621F0EEFD204610BDBE
:101A400070B5044609F025F923685D6E0FF02CF996
:101A500001462046A8472368054AD3F88850204607
:101A6000AC460023BDE87040A2F51631604700BFC8
:101A700000B004D009F0F4B809F0FEB809F0BAB823
:101A800009F01BBA90F8252012B103685B6918476A
:101A9000704790F825201AB190F8242002B1186000
:101AA00070470000034B4FF080629A604FF08072E5
:101AB0009A60704700E100E0084B4FF08062C3F885
:101AC0008820BFF34F8FBFF36F8F4FF08072C3F842
:101AD0008820BFF34F8FBFF36F8F704700E100E0A6
:101AE00070B50023124E8380124B0360336893F865
:101AF000582005460AB1D86C00B998680368DB6ABB
:101B000098473368B0FA80F4D86C640930B1036840
:101B1000DB6A9847002808BF44F001042CB9064B43
:101B2000064A07482C2122F0B3FC284670BD00BFAE
:101B3000504C0120B06502086D590208CB590208CB
:101B4000045A020870B5244E3568BFF35B8F15F058
:101B500001053FD1304621F061FD00283AD01F4CED
:101B60001F4B256104F13400C4E90035C4E9025576
:101B7000E584A562A58510F094FC04F158000BF0F3
:101B800019FB184BA3652046174B40F8843BFFF721
:101B9000A7FF164BC4F884302433C4F88C30642378
:101BA000C4E928350023C4F8AC30C4F8B030C4F818
:101BB000B430C4F8B8300E480E4BC4F89050C4F896
:101BC0009C50C4F8A850C4F8983022F07FFC3046EE
:101BD00021F030FD014870BD683A00206C3A0020C9
:101BE000C07A0208D065020848660208747A0208C2
:101BF000BD190008547A020810B5144C236823B3A9
:101C0000134B144A1B6C11888B4213D1124B198849
:101C100004F036FF226892F86A30013382F86A30A5
:101C2000FFF7C2FA206809F073FDBDE810400020FC
:101C3000FFF706B904F024FF206803681B6A984781
:101C4000BDE810400020FFF725B910BD504C012021
:101C500000680140663A0020643A0020000000005D
:101C60002DE9F84F0FF29809D9E9008926A7D7E99D
:101C70000067DFF888B04FF0000A1D4B33F81A20D8
:101C80001C4B33F81A4072B11B4BB3FBF2F3DBF879
:101C900000201A48591E5B08D162CBF80C10536320
:101CA000002106F0C9FA2046FEF75EFD42464B468B
:101CB00004460D46FEF7ECFAFEF7D0FD06F054FCA4
:101CC0000021584606F0F8FA32463B46204629469F
:101CD000FEF7DEFAFEF7C2FD0AF1010A06F044FC47
:101CE000BAF1280F08BF4FF0000AC6E7AFF3008033
:101CF000DC6602088C66020840420F00A03B002010
:101D0000CDCCCCCCCCCCEC3F9A9999999999B93F50
:101D100007B5064BADF806001B68054801220DF11A
:101D2000060105F09BFC03B05DF804FB0C000020ED
:101D30001C3C00202DE9F341284FDFF8A880284EF5
:101D4000002503F035FE00230446082138468DF8AF
:101D5000073004F087F888B9631B642B38D89DF8E6
:101D600007303BB10023D8F800001A460DF10701F7
:101D700006F0E9FC142006F0F7FBE2E70421384600
:101D800004F070F820B9631B642BE8D9522320E0DB
:101D90002021304604F066F820B9631B962BDED96B
:101DA0004F2316E01021304604F05CF820B9631B85
:101DB000962BD4D944230CE08021304604F052F80D
:101DC0000028CCD1631BB3F5967FC8D94D2300E022
:101DD0004C238DF807302546C4E700BF00180240A9
:101DE000000C02403C3B002030B595B01022002191
:101DF0000AA822F054FD1422002103A822F04FFD6E
:101E000000241E4B01941A6C42F080521A641B6C21
:101E100003F080530193019B194B02941A6842F41A
:101E200040421A601B6803F4404302930122029B64
:101E30004FF48033CDE9082302254FF480030821B5
:101E4000CDE90E534FF4B473CDE9101308A8042361
:101E50001393129504F06CFE04F030FE0F23CDE9CD
:101E600003354FF4A0504FF48053CDE9060305210C
:101E700003A8059405F038F815B030BD00380240CD
:101E8000007000402DE98048A7B00024C94DDFF85C
:101E9000608303F067FDFFF7A7FF1422002119A854
:101EA00022F0FDFC05942B6BC34843F010032B6319
:101EB0002B6B03F010030593059B06942B6B43F0EB
:101EC00020032B632B6B03F020030693069B0794E0
:101ED0002B6B43F080032B632B6B03F08003079382
:101EE000079B08942B6B43F004032B632B6B03F0CD
:101EF00004030893089B09942B6B43F001032B63A5
:101F00002B6B03F001030993099B0A942B6B43F09D
:101F100002032B632B6B03F002030A930A9B0B94BF
:101F20002B6B43F040032B632B6B03F040030B93AD
:101F30000B9B0C942B6B43F008032B632B6B03F070
:101F400008030C9322463C210C9B03F091FF9B4815
:101F50002246042103F08CFF224699484FF4405159
:101F6000012603F085FF3C23CDE9193692481B94E6
:101F7000032319A902271C934FF0040B03F08EFED4
:101F80008E481B9419A9CDE919B61C9703F086FE5B
:101F90004FF440528A4819A9CDE91926CDE91B47CB
:101FA00003F07CFE0C2287481B9619A9CDE9192461
:101FB00003F074FE19A9B02281481B96CDE91924BB
:101FC00003F06CFE8048814A026003F05DFD804BA7
:101FD000804AC8F82040C8E9003240464FF48042A9
:101FE000C8E90424C8E90244C8E9064404F04EF9EB
:101FF0001021404604F092FB2146404604F0ADFB20
:1020000075487649DFF8EC8184624FF482724FF4B0
:10201000007CC0E900121822C0E906C20A22C2628E
:10202000C0E90244C0E90444C0E9084405F0BAFA32
:102030006B4A19974FF01009C8E900264022C8E9F9
:1020400004924FF4C072C8E906244FF40062C8E954
:1020500008244FF400520323C8F8282019A90722A6
:102060004046CDE91D374FF0080AC8E9024BCDE9DB
:102070001A2B1C921F9705F078F94FF6FF7214A9DE
:102080004046CDE915A60D941496179405F08DF9E8
:10209000304603F093FC4FF6FF7214A94046CDE999
:1020A000147ACDE9166405F080F903234FF6FF7228
:1020B00014A94046CDE9143ACDE916B405F075F9F6
:1020C0004FF40C720D920D9B17934FF6FF7214A9EB
:1020D0004046CDE914BA169605F067F940F26A5108
:1020E000404605F080F92146342219A822F0D7FB9A
:1020F000DFF804813B4BC8F81040C8E900340923DD
:102100004FF01D0EC8E905360323C8E907E340F286
:102110000D1B40F24313C8E909B340F2171240F215
:1021200047134046C8E90B23C8E90244A8F83440E5
:1021300088F8364004F0ACFBFF21F022CDE91E14F4
:102140004FF4806005214FF4A073CDE92001CDE963
:102150001A2419A9CDE9224240462246DFF89C8084
:102160002493CDE91C371994ADF894408DF896402E
:1021700004F059FC1C4BC8F800301B689847D8F88D
:102180000030DFF87C80DB689847184B4046C8E990
:102190000034C8E90274C8E90A47C8E90C4403F0EE
:1021A00083FC3146404603F035FDFEF787FDFEF720
:1021B00084FD27E000380240001002400008024081
:1021C000000C024000180240B03D002000300240E8
:1021D000005C0040A08601001C3C00200050014033
:1021E000400100A0006801401400002000B002403F
:1021F0001C3D0020E83B0020743C0020283B0020D0
:10220000703D00204A46214610A822F048FB1C22BF
:10221000214619A8CDE90E4422F041FBCDE9164430
:1022200003942B6C6A48DFF8F8813B432B642B6CDA
:102230003B400393039B04942B6B3B432B632B6B1F
:1022400018973B4014A90493049BCDE9149703F01D
:1022500025FDDFF8D0C1C8F808405923C8E900C3FC
:1022600040F2E733C8E9033440468023C8F8183009
:1022700005F0F2FD4FF4805310A94046109305F08D
:10228000D5FE404605F014FE0EA940464FF0600B07
:10229000CDE90E4406F012F8224619A94046CDE9D0
:1022A00019B41B941D9405F05FFE4A46214610A800
:1022B00022F0F5FA1C22214619A8CDE90E4422F09D
:1022C000EEFACDE9164401942A6C4148DFF85881B2
:1022D00042F004022A642A6C02F004020192019A7C
:1022E00002942A6B3A432A632A6B18973A40029267
:1022F00014A9029A4FF48072CDE9142703F0CEFCA2
:10230000344AC8F808405923C8E9002340F2E733AB
:10231000C8E9033440468023C8F8183005F09CFD16
:102320004FF4805310A94046109305F07FFE4046BD
:1023300005F0BEFD0EA94046CDE90E4405F0BEFFF6
:10234000524619A94046CDE919B41B941D9405F0D5
:102350000BFE19946B6B204843F040036B636B6B6F
:1023600003F040031993199B1C4B036004F0B1FF69
:1023700006F08AF81A4A3946484606F0A9F9194B78
:10238000194A18603146484606F0A2F9174B184A18
:1023900018602146174806F0A3F8174B174A186033
:1023A0002146174806F09CF8164B174A186021463C
:1023B000164806F095F8164B164A1860214616483E
:1023C00006F08EF8154B186006F070F8FEE700BFB7
:1023D0000004024000080040483B0020000806506E
:1023E0008C6702083C3B002074670208383B0020E1
:1023F000C8670208351D0008443B0020A467020896
:10240000CB0C0008403B00202C6702086924000820
:10241000303B002050670208611C0008343B00205C
:10242000A03B002000040040583B002010B50C46A3
:1024300060B10B4BB3FBF0F30A480268591E5B080E
:10244000D162C160D363082105F0F6FE204606F094
:102450008BF8BDE810400348082105F02DBF00BFF0
:1024600040420F00583B002007B500231D4C8DF85B
:10247000073020684FF0FF3300220DF1070106F00E
:1024800093F90028F5D19DF80730013B042BF0D8D3
:10249000DFE803F003090D111A001E214FF4167036
:1024A000FFF7C4FFE5E732214FF47A70F8E73221F5
:1024B0004FF49670F4E750214FF49660FFF7B6FFA3
:1024C00096214FF4E160EBE7C8214FF4FA70FFF773
:1024D000ADFFC8214FF4C870FFF7A8FF4FF4C871D3
:1024E000E6E700BF383B002007B50023064801930C
:1024F00001A904F006FF18B9019803B05DF804FBC8
:1025000003F056FAF9E700BF483B002070477047D8
:102510007FB5094B8DF817201B6802930DF1170248
:102520000123009201930A460146044803F056FF36
:1025300007B05DF804FB00BF100000201C3D002028
:102540007FB500238DF81730084B1B6802930A46AD
:1025500001230DF11701009101930146044803F096
:10256000CDFF9DF8170007B05DF804FB10000020B8
:102570001C3D00201FB5084C24680092CDE90134B1
:102580000A4601230146054803F0B8FF003818BF8A
:10259000012004B010BD00BF100000201C3D002031
:1025A00003F00CBA10B5064C00222046042103F0BB
:1025B0005FFC20460122BDE81040042103F058BC16
:1025C0000008024038B50B4D044601220A484FF47A
:1025D000005103F04DFC00220421284603F048FC82
:1025E0002046FFF795FB28460122BDE8384004212C
:1025F00003F03EBC00080240000C024038B50B4D11
:10260000044600220A484FF4005103F031FC002236
:102610000421284603F02CFC2046FFF779FB2846CE
:102620000122BDE83840042103F022BC000802402A
:10263000000C0240F7B5144E144F05460C463046C8
:102640000022042103F014FC00224FF4005138460C
:1026500003F00EFC2846FFF75BFB0D4B0D481B6893
:10266000224601A905F0A6F9384601224FF400518F
:10267000019C03F0FDFB30460122042103F0F8FB2E
:10268000204603B0F0BD00BF00080240000C02402D
:102690000C0000201C3C002003F090B90268034BA2
:1026A0009A4201D103F078B9704700BF0010004092
:1026B0007047000082B00E4B00220092596C41F42A
:1026C00080415964596C01F4804100910099019254
:1026D000196C41F0805119641B6C03F08053019315
:1026E000019B0F216FF0010002B003F08DB900BF14
:1026F000003802400268094B9A4282B00BD1002395
:102700000193074B1A6B42F480521A631B6B03F45C
:1027100080530193019B02B0704700BF003002401C
:102720000038024007B50F4B02689A4216D10022CA
:10273000A3F5F0430192196B41F4000119631B6B7F
:1027400003F40003019305215A20019B03F05CF977
:102750005A2003B05DF804EB03F088B903B05DF8CC
:1027600004FB00BF00B002402DE9F043044689B0ED
:102770001422002103A822F092F82268244B9A42E6
:1027800043D1244C244800250095236B43F00403D7
:102790002363236B03F004030093009B0195236BD9
:1027A00043F001032363236B03F001030193019BB7
:1027B0004FF012094FF400734FF00108032704266D
:1027C00003A9CDE90339CDE90587079603F066FA39
:1027D0004FF480731148079603A9CDE90339CDE979
:1027E000058703F05BFA0295236C43F4000323642E
:1027F000236C03F400030293029B236A43F4000357
:102800002362236A23F40003236209B0BDE8F08346
:10281000005C004000380240000802400000024016
:10282000F0B599B004461422002107A822F037F829
:1028300030220DEB0200002122F031F822685E4BBD
:102840009A4240F0B78008230C93C02310930423CE
:1028500012930CA84FF40033159304F00DFC08B14B
:10286000FFF726FF554B5648002400945A6C42F05F
:1028700080625A645A6C02F080620092009A01945D
:102880001A6B42F020021A631A6B02F020020192C6
:10289000019A02941A6B42F001021A631A6B02F059
:1028A00001020292029A03941A6B42F002021A6326
:1028B0001A6B02F002020392039A04941A6B42F01C
:1028C00040021A631A6B02F040020492049A0594C3
:1028D0001A6B42F004021A631A6B02F004020592AA
:1028E000059A06941A6B42F008021A631B6B03F0F8
:1028F0000803069302250E26069B0B964FF4806371
:1029000007A9CDE90735CDE9094503F0C7F941F637
:1029100058032C480B9607A9CDE907350927CDE9BF
:10292000094503F0BBF9032327480B9707A9CDE915
:102930000735CDE9094503F0B1F94FF4706322483A
:102940000B9607A9CDE90735CDE9094503F0A6F9AE
:102950004FF40C631D480B9607A9CDE90735CDE967
:10296000094503F09BF9C02319480B9607A9CDE947
:102970000735CDE9094503F091F9082315480B9671
:1029800007A9CDE90735CDE9094503F087F94FF4EB
:10299000A0530E480B9707A9CDE90735CDE90945A6
:1029A00003F07CF958202246052103F02DF8582029
:1029B00003F05CF819B0F0BD006801400038024037
:1029C00000140240000002400004024000180240CF
:1029D00000080240000C024010B5044688B01422E2
:1029E000002103A821F05BFF2268144B9A4223D1F7
:1029F00003F56843002101915A6C114842F480129A
:102A00005A645A6C02F480120192019A02911A6B74
:102A100042F020021A631B6B03F020030293029B17
:102A20004FF4607202230321CDE903230523CDE98E
:102A3000061303A903F032F908B010BD005001409D
:102A4000001402402DE9F04186B0002303932B4B84
:102A50001C68002C4FD14FF00108C3F80080284BB0
:102A600000949A6B274842EA08029A639B6B03EA38
:102A700008030093022703260C25009B01A94FF6AB
:102A80003F03CDE90137CDE9046503F007F91E489E
:102A9000059501A9CDE90187CDE9034603F0FEF8CC
:102AA00048F233131948059501A9CDE90137CDE95D
:102AB000034603F0F3F84FF683731548059501A913
:102AC000CDE90137CDE9034603F0E8F84CF2037392
:102AD0001048059501A9CDE90137CDE9034603F07A
:102AE000DDF860230C48059501A9CDE90137CDE952
:102AF000034603F0D3F806B0BDE8F081B83D0020EE
:102B00000038024000140240000802400018024051
:102B100000100240000C02400004024070B588B072
:102B200000230293204B1A6C42F010021A641B6CB3
:102B300003F010030293054601A903A8029B04F0C9
:102B40007DFA069B4BBB04F069FA184E184B3360B4
:102B500040F2E733F360174BB0FBF3F3013B7360D4
:102B6000304600233361B360B36105F075F9044664
:102B700080B9304605F044F8044658B9362002F0D2
:102B800075FF0F2D0DD822462946362002F03CFF56
:102B9000094B1D60204608B070BD04F03FFA4000AC
:102BA000D3E70124F6E700BF00380240BC3D002017
:102BB0000010004040420F007C0000207047FEE7FC
:102BC000FEE7FEE7FEE77047014805F058B800BF92
:102BD000BC3D0020014803F0C9BE00BF743C00208A
:102BE000014802F08DBF00BF703D002001207047FA
:102BF00008B521F0F7FE162303604FF0FF3008BD43
:102C000008B521F0EFFE16230360FEE770B50D4610
:102C100014460E46731B9C4201DC204670BDAFF388
:102C2000008006F8010BF5E770B50D4614460E4618
:102C3000731B9C4201DC204670BD16F8010BAFF3FC
:102C40000080F5E74FF0FF3070474FF400534B60C2
:102C50000020704701207047002070470A4A116821
:102C600008B5034609B9094911601068694603446B
:102C70008B4206D921F0B6FE0C2303604FF0FF30E3
:102C800008BD1360FCE700BF043E002090590120FE
:102C9000704710B50421044620F0BEFC204610BD4C
:102CA00008B5032913D8DFE801F002060A0E01F087
:102CB0004DFE006808BD01F049FE4068FAE701F0EA
:102CC00045FE8068F6E701F041FEC068F2E70020AB
:102CD000F0E70000004870470068020805207047D0
:102CE00013B5002451B1036801948DF8034001AA83
:102CF0009C680DF10303A04702B010BD0846FBE736
:102D0000C0897047008A7047C088704780887047C4
:102D1000807A00F07F007047807AC00970470020F9
:102D2000704700009FED010A704700BF00000000DF
:102D3000704710B50821044620F06EFC204610BDF7
:102D40007047704700F598730868496803C3704777
:102D5000704770474160704710B50022B1F90840D4
:102D6000B1F90A10028042808480C18010BD704792
:102D700070477047064BC0F84C310023C0F8503103
:102D800000F5A273C0F84801C0F84031704700BF99
:102D90002530000801230372704770477047704761
:102DA000704701464068036810315B6E184770B584
:102DB000054640680368DB69984704463CB9686883
:102DC000036805F110011B6EBDE870401847A1882B
:102DD000AB89C91A236820461B6B09B29847A469BE
:102DE000ECE7704710B4C26841685410034601EB29
:102DF0006200D20748BF0A599B685DF8044B48BF80
:102E0000D35818470346406830B19A681AB9D86851
:102E100000F0010070470120704710B50C210446F6
:102E200020F0FAFB204610BD10B51021044620F01A
:102E3000F3FB204610BD10B54FF4AE71044620F0F0
:102E4000EBFB204610BD10B53821044620F0E4FB12
:102E5000204610BD10B52821044620F0DDFB204699
:102E600010BD10B54021044620F0D6FB204610BD11
:102E700010B50DF019FF0368BDE81040DB6B184773
:102E800037B50546807A6B7A0130C0B29842A87295
:102E900005D901232B720023AB7203B030BDB5F905
:102EA0000C20B5F90E4000210FF086FFC30707D5AF
:102EB00000284FF6FF73C8BF012313FA80F000B259
:102EC000AB7AE881041B012BA4B206D1174B1B7807
:102ED0001BB10DF0E9FE0DF0EDFE154A002312883E
:102EE000ADF80230EB891A445B42ADF80430114B67
:102EF000ADF800201B88ADF806300DF0D5FE036854
:102F000002AA12E906001B6C984768680368DB692F
:102F100098470546002DC0D0A9882B682144284633
:102F20001B6B09B29847AD69F4E700BF4E4C012016
:102F3000444C0120464C0120054B1B7801462BB127
:102F4000406818B103680C315B6E1847704700BFCA
:102F50004F4C0120037A70B50546BBB94068036841
:102F6000DB69984704463CB96868036805F10C01C1
:102F70001B6EBDE870401847A1886B8FC91A236883
:102F800020461B6B09B29847A469ECE770BD10B5E9
:102F90000446D0F8400158B10368DB68984738B15F
:102FA000D4F8400103689B6898470023C4F8403177
:102FB00010BD70B5044690F8390094F838300130EF
:102FC000C0B2984284F8390005D901232372002346
:102FD00084F8393070BDB4F93A2000210FF0ECFECE
:102FE000C30706D500284FF6FF73C8BF0123184456
:102FF00000B2238AC01AA08760680368DB6998471B
:1030000005462DB960680368BDE870405B691847E4
:10301000A988A38F19442B6828461B6B09B29847CF
:10302000AD69EEE72DE9F14FD0E9556A0746B06882
:1030300003681B6A9847B0F5C67F05D2444B454AE2
:10304000A321454821F024FA706803681B6A984759
:103050000F2803D8414B3F4AA421F2E7F0680368E8
:103060001B6A98470B2803D83D4B3A4AA521E8E74D
:103070000DF01AFEDFF8F09004300DF07BFED9F869
:10308000000010B10368DB689847D9F8000010B160
:1030900003681B689847DFF8D480D8F8000010B1A7
:1030A00003685B699847D7F83C0110B103685B6817
:1030B0009847D8F8000010B103681B689847D7F804
:1030C0003C0110B103689B689847F06803680021D1
:1030D0005B6A98474FF0000B224BC0F804B00446DF
:1030E00080F808B00360B068036859465B6A984787
:1030F000054601F099FD7068036859465B6A984778
:103100002946064601F04EFD331DC7F83C61C9F85B
:103110000040C8F80050CAF800302B68C6F808A074
:103120002846DB68EE639847336830461B6898474B
:10313000214628460FF03AFE236820461B6998472F
:1031400023685B69204601B0BDE8F04F184700BF17
:10315000A15A02082F5B0208FB5B0208425C0208CE
:10316000E55C020850690208984C0120944C01204B
:103170002DE9F0411D460368BDF918701B6B04462C
:10318000164698472368314620465B6B984723686C
:10319000294620469B6B9847236839462046DB6BBF
:1031A000BDE8F041184700002DE9F74FD0E9556A16
:1031B0000746B06803681B6A9847B0F5C67F05D21A
:1031C000544B554AA321554821F062F970680368B1
:1031D0001B6A98470F2803D8514B4F4AA421F2E7A6
:1031E000F06803681B6A98473F2803D84D4B4A4A4A
:1031F000A521E8E70DF058FDDFF8389104300DF017
:10320000B9FDD9F8000010B10368DB689847D9F818
:10321000000010B103681B689847DFF81C81D8F8DC
:10322000000010B103685B699847D7F83C0110B102
:1032300003685B689847D8F8000010B103681B6802
:103240009847D7F83C0110B103689B689847F0682D
:10325000036800215B6A984705460022324B4260B2
:10326000027245F80C3B044628460AF04BF814233A
:1032700023872E4B1B780022A287002B35D10123F8
:103280002372B068036800215B6A9847054601F025
:10329000CBFC7068036800215B6A984729460646A4
:1032A00001F080FC331DC7F83C61C9F80040C8F844
:1032B0000050CAF800302B68C6F808A02846DB6822
:1032C000EE639847336830461B6898472146284686
:1032D0000FF06CFD236820461B69984723685B69E3
:1032E000204603B0BDE8F04F1847114BDFF84CB053
:1032F000B3F900300093BBF9003011462846FFF7C0
:1033000037FF284609F079FFBBF800305B4263873E
:10331000B7E700BFA15A0208885D0208FB5B0208FC
:10332000425C0208E55C0208986902084F4C0120E3
:10333000464C0120984C0120944C0120444C012023
:103340002DE9F74FD0E955BA0746DBF808000368C6
:103350001B6A984742F2E353984205D8544B554AAA
:10336000A321554821F094F8DBF8040003681B6A98
:1033700098470F2803D8514B4E4AA421F1E7DBF8B8
:103380000C0003681B6A9847372803D84C4B494AFE
:10339000A521E6E70DF088FCDFF8389104300DF048
:1033A000E9FCD9F8000010B10368DB689847D9F848
:1033B000000010B103681B689847DFF81C81D8F83B
:1033C000000010B103685B699847D7F83C0110B161
:1033D00003685B689847D8F8000010B103681B6861
:1033E0009847D7F83C0110B103689B689847DBF811
:1033F0000C00036800215B6A9847324B03604FF46E
:10340000A05303814FF4807343632F4B03612F4B11
:103410001B885A4282812E4A0025B2F9002045605D
:1034200004468572C581C0E90555C0E90755C0E964
:103430000955C0E90B55294600921BB22A461030A7
:10344000FFF796FEDBF80800036829465B6A984799
:10345000064601F029FFDBF80400036829465B6A91
:1034600098473146054601F009FC2B1DC7F83C5131
:10347000C9F80040C8F80060CAF800303368C5F8E1
:1034800008A03046DB68F56398472B6828461B6820
:103490009847214630460FF089FC236820461B6977
:1034A000984723685B69204603B0BDE8F04F184792
:1034B000A15A0208675E0208FB5B0208425C020830
:1034C000E55C0208746902087C680208444C01202B
:1034D000464C0120984C0120944C0120044B1B6861
:1034E00093F858200AB1D86C00B99868704700BFAB
:1034F000504C0120F8B5174604460E460DF008FD65
:10350000124B1C60124B2360124B0025C4E951354D
:10351000114BC4E953551868036801219B68C4E93D
:103520004F55C4E955769847284601F0C3F9FFF78F
:10353000D5FF17F06EFFFFF7D1FF17F0E5FFFFF79C
:10354000CDFF17F0EDFF2046F8BD00BFA44C0120D1
:10355000FC680208E4680208504C0120064BC0F8E1
:103560004C310023C0F8503100F5A273C0F8480177
:10357000C0F84031704700BF25300008064BC0F846
:103580004C310023C0F8503100F5A273C0F8480157
:10359000C0F84031704700BFA9310008064BC0F8A1
:1035A0004C310023C0F8503100F5A273C0F8480137
:1035B000C0F84031704700BF41330008406A70478F
:1035C000806A704770478B88C0690A68DB0A50F8C8
:1035D00023001044704710B50446BAB1107B68B19F
:1035E000537BD27A1B0203F4E0631A43236A03EB92
:1035F00082031A888A4202D193F9020010BD05D8CD
:10360000013880B204330028F3D1F7E70020F5E752
:1036100010B52C2104461FF0FFFF204610BD00000E
:1036200030B58BB00446BDF860500895BDF85C50CD
:1036300007959DF8505006959DF84C5005959DF8BE
:10364000485004959DF8445003959DF840500295CC
:103650009DF83C500195BDF8385000950EF0DEFF06
:10366000064B2360159BE361169B2362199B6362E3
:103670001A9BA36220460BB030BD00BFBC69020894
:103680007047704770477047704730B5036885B022
:103690006D460181D3F88430014604462846984798
:1036A00095E807003C3484E8070005B030BD30B52C
:1036B000036885B06D464181D3F8843001460446E5
:1036C0002846984795E807003C3484E8070005B091
:1036D00030BD0022028042808280C280704780F824
:1036E0003610704770B5036804461B6B1546984743
:1036F0002368294620465B6EBDE8704018470020CD
:103700007047806C7047704770477047704730B49F
:10371000C26844685510034604EB6200D20748BFF4
:1037200062599B6830BC48BFD3581847034640686D
:1037300030B19A681AB9D86800F0010070470120CA
:10374000704710B54C2104461FF066FF204610BD9F
:1037500010B5102104461FF05FFF204610BD10B5C4
:103760004FF4C67104461FF057FF204610BD08B540
:10377000FEF788F908BD0000036870B55E6B124B58
:103780001B6804468DB22BB9104B114A6C211148AD
:1037900020F07EFE1049828D0988914203D80F4B9C
:1037A0000B4A6D21F3E713F812200D4B1B6853F8F9
:1037B000220003681B6B9847291A3346204609B23A
:1037C000BDE87040184700BFA84C01204C5F0208BC
:1037D0008E5F0208C95F0208AC4C0120106002082D
:1037E000B04C01209830884208B505D10DF05CFA44
:1037F000BDE80840FFF7D2BE08BD00224FF0FF3100
:10380000C0E900218260704770B5036804461B6BF5
:10381000154698472368294620465B6BBDE87040F3
:1038200018470000F8B5194B018F1B888B420646DC
:103830002AD9174B1B682BB9164B174A17486C210E
:1038400020F026FE13F81120154B1B6853F8225068
:10385000144B186801F06AF82B6807469B6B2846E2
:1038600098472B6804469B6C3946284698472B6836
:1038700014FB00F45B6A394628469847A4B2231823
:103880001BB2A6F84630F8BD0023FAE7AC4C012085
:10389000A84C01204C5F02088E5F0208C95F020835
:1038A000B04C0120B44C01204FF4807181840D494B
:1038B00001600D4981624FF6FF7181854FF47F01F0
:1038C000002241634FF0FF31C0E90122C0E9032229
:1038D000C0E90522C0E90722C0E91012026302878D
:1038E000C2637047687C02086C6802082DE9F04FDB
:1038F00004468DB00FF0AEF8784B2360784B00256E
:10390000C4E910354FF4807304F16C0AA4F86430F4
:10391000FF2304F198060AA984F8663050464FF652
:10392000FF73C4E91255C4E91455C4E91655E5639B
:103930002566A566ADF8283004F1E00909F04CFDD4
:1039400030460AF0E9FD04F594774846FFF7ACFFEE
:103950003846FFF7A9FF634BC4F82831624BC4F81F
:103960007051C4E95F34614B4FF4A07B2A46C4E92F
:10397000613504F14000CDF800B0F02329460390F2
:10398000FFF7F6FB03984FF07F4304F10408A366AA
:103990000146404606F092FE50460AA9ADF828506E
:1039A0000AF082FCF0232A465046CDF800B02946A2
:1039B000FFF7DEFB5046294609F0C9FC5146404658
:1039C00006F07CFE3046BB222946FFF71DFF4FF074
:1039D000010A02230AAA09A93046ADF82830ADF839
:1039E00024A00AF09AFA0723A4F8D0303046FFF753
:1039F00019FF4FF0FF3B04F5BE723146C4F8C020FA
:103A00004046C4E935BB06F059FE04AE41222F21E1
:103A10004846FFF7F9FE30464946C4F810B1A4F80D
:103A2000145109F083FF96E8070004F58E7C8CE8BA
:103A300007002F4B0A9306220AA94846ADF82C200E
:103A40000AF00EFA4946404606F038FE8F2245211C
:103A50003846FFF7D9FED4F82831C4F858B13046BB
:103A6000D3F88430A4F85C513946984796E80700AB
:103A700004F5B27383E807001E4B1B6804F5BA76A1
:103A80002BB91D4B1D4A60211D4820F001FD1D4B27
:103A90001B881BB91C4B194A6121F5E71B4B2946B2
:103AA000186800F043FF1A4A03460421304610F01C
:103AB000B1FC3846C4F870610AF0B2F90C4B0A93B5
:103AC0000AA93846ADF82CA00AF0CAF94046394692
:103AD00006F0F4FD20460DB0BDE8F08FCC6A020878
:103AE000F87C0208246A0208B46A0208E537000874
:103AF0006C680208A84C01204C5F02084E60020866
:103B0000C95F0208AC4C012010600208B44C0120CF
:103B100099600208806A7047704770477047806CF0
:103B20007047C06C70477047704770477047704768
:103B300070477047704770477047704770477047CD
:103B400070470368DB6A184790F82C304BB100F1DE
:103B50007402126842663BB100F17C031B68836605
:103B6000704700F17002F4E700F17803F6E708B55A
:103B700090F82C303BB100F1CC031B68C0F8B0309A
:103B8000FFF7E2FF08BD00F1C803F6E790F82C301C
:103B90004BB100F16C021268C2653BB100F17403D5
:103BA0001B680366704700F16802F4E700F17003D8
:103BB000F6E708B590F82C303BB100F1C4031B6860
:103BC000C0F8A830FFF7E2FF08BD00F1C003F6E738
:103BD00030B4C26844685510034604EB6200D20753
:103BE00048BF62599B6830BC48BFD358184703464A
:103BF000406830B19A681AB9D86800F0010070477F
:103C00000120704790F82D3080F8AE3080F85A309F
:103C1000704790F82D3080F85A30704790F82D306A
:103C200080F86030704790F82D3080F8B63080F81A
:103C30006230704790F82D3080F86230704701464E
:103C4000383091F82C3013B136310AF02DBB3431B5
:103C5000FBE710B5342104461FF0DEFC204610BD02
:103C600010B5642104461FF0D7FC204610BD10B5E6
:103C7000502104461FF0D0FC204610BD10B5802115
:103C800004461FF0C9FC204610BD10B5D0210446E3
:103C90001FF0C2FC204610BD10B5782104461FF06D
:103CA000BBFC204610BD10B5C82104461FF0B4FC73
:103CB000204610BD10B5102104461FF0ADFC204673
:103CC00010BD10B54FF4B46104461FF0A5FC2046AA
:103CD00010BD38B500F51973994204460D4602D15E
:103CE00003681B6B984704F54D739D4203D123680D
:103CF00020465B6B984704F1C4039D4203D12368BF
:103D000020469B6B984704F5CA739D4203D12368F4
:103D10002046DB6B984704F204439D4203D10CF02C
:103D2000C3FFFFF72BFC04F58D64A54205D10CF011
:103D3000BBFFBDE83840FFF721BC38BD10B50446D5
:103D4000006B50B10368DB68984730B1206B0368A3
:103D500021469B68BDE81040184710BD90F82C30F4
:103D600010B504466BB1B0F93830B0F93A209A4238
:103D700008D10368D3F88830984700232387E38E5F
:103D8000638710BD01330387FBE738B50B7990F8E3
:103D90002C2004460D468BB98AB123682046D3F8FF
:103DA0008830984700232387A38E63870CF07CFF1D
:103DB00021460430BDE838400DF06CB882B1B3FA4A
:103DC00083F35B0984F82C3023682046D3F88C30C9
:103DD0009847236820465B6998472B79002BDCD0F5
:103DE0000CF062FF21460430BDE838400CF0A9BF5A
:103DF0000B7970B590F82C6004460D460BB916B1DE
:103E000070BD002EFCD0B3FA83F35B0984F82C302C
:103E100023682046D3F88C309847236820465B6996
:103E20009847002EECD02B79012BE9D1236820464E
:103E3000D3F88830BDE8704018470B882DE9F04171
:103E400083861388B0F90850C3860446104690460E
:103E500010F09AFBB4F90A30074603EBD3734046DF
:103E6000C3F34F0610F0C4FB05EBD575C5F34F0542
:103E700000EBD07007EBD777A6EB6002A5EB6701EC
:103E800004F1380012B209B2FFF7BEFC23682046E5
:103E9000D3F88C30BDE8F041184770B5036804468C
:103EA0009B6B15469847236829462046DB6BBDE887
:103EB000704018470022C0E90122C0E90322C0E98E
:103EC0000522C0E907224FF480728284014A026011
:103ED000704700BF006B020810B52622044600217F
:103EE00020F0DDFC2046FFF7E5FF044B2360FF23B5
:103EF00084F826300023A362204610BDF87C020817
:103F0000094A02600022C0E90122C0E90322C0E997
:103F10000522C0E9072282624FF47F41026340F22A
:103F20000112818582847047686B020870B504466F
:103F3000FFF7E6FF154B00252646C4E90D35144B67
:103F400046F83C3B3046FFF7C7FF124BE3632A4677
:103F500029463046C4E91C55C4E91E55A566A4F897
:103F60006C50FFF751FC31462046264606F0A6FB72
:103F7000094B46F8803B3046FFF796FC2046C4E9E3
:103F80003255314606F09AFB204670BD1E000F00E8
:103F9000946C0208607D0208306D020810B48367DB
:103FA000019BC36703685DF8044BD3F88C30C0E90C
:103FB0001C12184738B5044600F18005284609F060
:103FC0004FFFB4F90A20B4F908102846FFF765FF3F
:103FD00038BD0368C0E93212D3F88C3018470000AE
:103FE0002DE9F04F044695B0A04600250EF032FDB5
:103FF000D94BE56348F8403B04F16C074046FFF7B6
:104000006BFF4FF6FF7B12A904F19809384604F1C3
:10401000C406ADF848B009F0DFF94846FFF75CFF89
:104020003046FFF783FF04F5CA7318460493FFF781
:104030007DFF04F5197318460593FFF777FF04F524
:104040004D7318460693FFF771FF04F204432946A7
:1040500034221846079320F022FC0798FFF750FF00
:10406000BE4BC4F8043404F23C4A4FF0FF3326221E
:104070002946C4F838345046ADF848B020F00FFC5B
:104080005046FFF717FFB64BC4F83C34BDF8483034
:10409000A4F86234504684F864B412A90AF004F912
:1040A0005146079806F00AFB04F58D632946342231
:1040B0001846039320F0F3FB0398FFF721FFA94B69
:1040C000C4F8683404F29C4318460B93FFF704FFCE
:1040D000A54BC4F89C342A4629460B98C4F8C8540A
:1040E000A4F8CC54C4F8D054C4F8D454C4F8D85468
:1040F000C4F8DC54FFF788FB0B99039806F0DEFA4E
:104100009A4BC4F8683404F59C6318460A93FFF789
:10411000CBFB0A990398C4F82855C4F82C5506F02F
:10412000CDFA04F5A66318460993FFF7BDFB904B43
:10413000C4F830358F4BC4F890358F4BC4F89835A0
:104140004FF4A07304F1040B2A46C4F87855C4F860
:104150007C55C4F89C55294640464FF07F4AC4F828
:1041600094450093F023FFF703F84146C4F868A094
:10417000584606F0A3FA384612A9ADF848500AF09E
:1041800093F84FF4A0732A46294638460093F0234B
:10419000FEF7EEFF2946384609F0D9F83946584669
:1041A00006F08CFA4623FA22294648460093F0236B
:1041B000FEF7DEFF5C234946C4F8C0A084F8BE3099
:1041C00058461A2706F07AFA4FF01E13C4F8F83052
:1041D0002A4629460097322304F58070FEF7C8FF6F
:1041E000DFF8AC91654A6649DFF8A8814FF0020319
:1041F000A4F830313046634BCDF80090FFF7CEFE87
:104200004FF0080A604B1293304612A9ADF84CA04B
:10421000FFF7D0FE322352462946009704F5A270DC
:10422000FEF7A6FF424641463046FFF7D2FE04F5B0
:10423000B262C4F8F42032233046089200974FF45B
:1042400091725F21FEF794FF3146584606F036FA28
:104250004FF00F13C4F8C8312A462946009732237D
:1042600004F5E870FEF784FF4FF00202A4F8002284
:10427000444B424A42490498CDF80090FFF78EFE25
:104280004FF00A01404B0498ADF84C1012A912935C
:10429000FFF790FE322352462946009704F5057039
:1042A000FEF766FF424641460498384EFFF791FEFE
:1042B000089AC4F8C421322340F2011204980097EE
:1042C0005F21FEF755FF0499584606F0F7F9C4F848
:1042D00098622A4629460097322304F52870FEF793
:1042E00047FF4FF00202A4F8D022264B234A24496C
:1042F0000598CDF80090FFF751FE234B05981293D7
:1043000012A90B23ADF84C30FFF754FE322352466E
:104310002946009704F53970FEF72AFF42464146C8
:104320000598FFF756FE089AC4F8942232234FF4FA
:10433000877205980097A521FEF71AFF0599584640
:1043400006F0BCF9C4F868632A4629460097322370
:1043500004F55C7020E000BFBC6F0208CC6D020861
:10436000C87D02086C6E0208607D0208086F0208B2
:10437000046C0208A46F0208D33C0008CC9900FF2B
:1043800000990DFF076600FF6C6802080300060035
:10439000996633FF0A0A0AFFFEF7EAFE4FF00202AF
:1043A000A4F8A0237D4B7E4A7E490698CDF8009064
:1043B000FFF7F4FD7C4B0698129312A90923ADF880
:1043C0004C30FFF7F7FD322352462946009704F59B
:1043D0006D70FEF7CDFE424641460698FFF7F9FDA7
:1043E000089AC4F8642332234FF487720698009722
:1043F0001921FEF7BDFE0699584606F05FF94FF009
:1044000003090798ADF8449012AA11A90426ADF843
:104410004860FFF712FD1423089AC4F84054C4F80A
:104420003424079800934FF49672DC21FEF7A0FE27
:1044300032270799584606F041F929462A460B9833
:1044400000978C23FEF794FE584AC4F8D024584AAB
:10445000C4F8D42402F5412202F2EA62C4F8D82456
:10446000544AC4F8DC24D4F868240398D2F88C2089
:104470000523A4F8CC3490474B4B0A98129312A909
:104480000523ADF84C3009F0EBFCB4F97224B4F913
:1044900070140A98FFF701FD29468C230A220A9816
:1044A0000097FEF765FE0398C4F82885C4F82C85AC
:1044B000FFF77FFB089B84F88D54C4F898346E2274
:1044C0008C23039800973946FEF752FE0399DFF8D4
:1044D0000481584606F0F2F82A4651460998FFF73B
:1044E00093F94FF0FF33C4F86035D4F83035A4F8B1
:1044F00064550CADD3F8843009992846984795E85F
:10450000070004F26C5383E80700D8F8003004F584
:10451000B06A2BB9284B294A602129481FF0B8FFFF
:10452000284F3B88032B03D8274B244A6121F4E70B
:10453000264D4946286800F0F9F9254A03463146D8
:1045400050460FF067FFD8F80030C4F878A504F59E
:10455000B169002BDED03B88022BE5D92868022107
:1045600000F0E4F91A4A0346314648460FF052FF7C
:104570000998C4F87C9509F053FC0B4B09981293E9
:1045800012A9ADF84C6009F06BFC5846099906F089
:1045900095F8204615B0BDE8F08F00BF076600FF14
:1045A000CC9900FF00990DFF6C6802083338CCFFEE
:1045B0002C72D4FF31DEF5FF4C5F02084E6002081A
:1045C000C95F0208AC4C012010600208B44C012005
:1045D00099600208A84C01207047000030B5174DC3
:1045E0002C6814F001048FB0BFF35B8F23D12846F1
:1045F0001FF014F8F8B1124B124913480A94CDE990
:104600000B433F230993114B0893114B0594CDE9BC
:10461000064301220423CDE903320E230093162220
:104620001123CDE90144FEF7FBFF0A481FF04EFFBE
:1046300028461EF0FFFF04480FB030BD083E0020A2
:10464000FC6F0208549802080C3E00204C9B0208A4
:10465000749B0208D94500087047000030B5174D1B
:104660002C6814F001048FB0BFF35B8F22D1284671
:104670001EF0D4FFF0B13F230993114B0893114B67
:10468000114912480A94CDE9064301220423CDE9D9
:1046900003320A2300930E220C23CDE90B44CDE90B
:1046A00001440594FEF7BCFF09481FF00FFF2846A0
:1046B0001EF0C0FF05480FB030BD00BF383E0020DF
:1046C000509B0208789B0208889902083C3E002013
:1046D000594600087047000030B5164D2C6814F09C
:1046E00001048FB0BFF35B8F21D128461EF096FFE7
:1046F000E8B13F230993104B0893104B0793012314
:10470000CDE9054304930423CDE9024316230C4964
:1047100000930922CDE90B440A480A940194FEF75C
:104720007FFF09481FF0D2FE28461EF083FF054890
:104730000FB030BD683E0020549B02087C9B0208ED
:104740004C9A02086C3E0020D546000870470000D5
:1047500030B5174D2C6814F001048FB0BFF35B8F98
:1047600022D128461EF05AFFF0B13F230993114B86
:104770000893114B07930123CDE9054304930423C8
:10478000CDE9024328230D49009309222923CDE9CD
:104790000B440B480A940194FEF742FF09481FF0AE
:1047A00095FE28461EF046FF05480FB030BD00BFFD
:1047B000983E0020589B0208809B0208CC9A020871
:1047C0009C3E00204D4700080020704700207047A5
:1047D0000EB403B503AB002153F8042B01930DF085
:1047E00021FA02B05DF804EB03B070470CB407B5D2
:1047F00004AB53F8042B01930DF014FA03B05DF8E9
:1048000004EB02B070470000436C10B5044673B36C
:10481000038F2BB9184B194AC52119481FF038FED0
:10482000C38E00EB43035B8C0BB30FF04AF8238F6E
:10483000012B03D8134B144ACB21EEE7E28E531C15
:104840009BB2092B194688BFA3F10A0104EB410171
:1048500040F63F10498C814209D10A2B04EB4202F9
:1048600028BF002304EB4303508C58845184204616
:10487000BDE810400EF028BF9C600208A560020849
:10488000506102089A610208A86102080EF0E3BEB6
:1048900010B586B002AC84E806001A460AAB059350
:1048A0000193099B00932146089B0BF07FFD06B006
:1048B00010BD000038B518BB124B13481C681349D3
:1048C000B4B1226822440260626822440A60A2688D
:1048D00014440F4B00221A8000F038F8054600F00F
:1048E00033F80C4B1C600C4B1D600C4B188007E020
:1048F0000B4B03600B4B0B600B4B1C68002CE8D17F
:1049000038BD00BFD43E0020CC3E0020C83E002071
:10491000D03E0020A84C0120B04C0120AC4C01201E
:10492000B49B0208849B0208489C0208044B1B6845
:1049300053F82100034B1B6803EB4000704700BF96
:10494000C83E0020CC3E00200C2070470048704735
:10495000D83E002010B5FFF741FE064C2060FFF75F
:10496000F7FE6060FFF77AFEA060FFF7B5FEE0603B
:1049700010BD00BFD83E002010B5002404600C60BC
:1049800014601C6010BD7047704710B4C268416865
:104990005410034601EB6200D20748BF0A599B68D6
:1049A0005DF8044B48BFD35818470346406830B100
:1049B0009A681AB9D86800F0010070470120704762
:1049C00010B5102104461EF027FE204610BD10B57C
:1049D0004FF4B67104461EF01FFE204610BD10B500
:1049E0000446D0F8580100F03AF92046BDE81040DE
:1049F0000CF01EBA2DE9F14FD0E9556A0746B068B0
:104A000003681B6A984742F2E353984205D8444B27
:104A1000444AA32144481FF03BFD706803681B6AA9
:104A200098470F2803D8414B3E4AA421F2E7F0688B
:104A300003681B6A98470B2803D83D4B394AA521C8
:104A4000E8E70CF031F9DFF8F09004300CF092F95F
:104A5000D9F8000010B10368DB689847D9F8000066
:104A600010B103681B689847DFF8D080D8F80000C1
:104A700010B103685B699847D7F83C0110B103682F
:104A80005B689847D8F8000010B103681B68984726
:104A9000D7F83C0110B103689B689847F068036839
:104AA00000215B6A98474FF0000B224BC0F804B01E
:104AB000044680F808B00360B068036859465B6A32
:104AC0009847054600F0F0FB7068036859465B6A3A
:104AD00098472946064600F0D1F8331DC7F83C61D7
:104AE000C9F80040C8F80050CAF800302B68C6F872
:104AF00008A02846DB68EE639847336830461B6899
:104B00009847214628460EF051F9236820461B6934
:104B1000984723685B69204601B0BDE8F04F18470D
:104B2000A15A02087A620208FB5B0208425C020892
:104B3000E55C020850690208984C0120944C012061
:104B400010B50446FEF7D6FC054B2360054BC4F8B0
:104B50005C310023C4E95833C4F86831204610BDE5
:104B6000747402085C740208064BC0F864310023B8
:104B7000C0F8683100F5AE73C0F86001C0F840318C
:104B8000704700BFF5490008704704387047704708
:104B900010B5102104461EF03FFD204610BDA0F1C7
:104BA0000400F5E700228260024A02601832426087
:104BB000C1607047C874020808B50CF075F8BDE80C
:104BC0000840FFF7D1BF704710B5034B03600446A0
:104BD000FEF79BFD204610BDF074020810B5044698
:104BE000FFF7F2FF20464FF4C6711EF015FD204678
:104BF00010BD000037B50B4D0446286803F004FED5
:104C000068B100231A4628680DF1070103F0CCFDB6
:104C10009DF807304D2B02D1E06BFFF7CDFF03B0BD
:104C200030BD00BF3C3B002010B50446FEF75EFEE1
:104C3000054B2360054B064A1B88042104F5BA7016
:104C40000FF0E8FB204610BDF07402082C3B00205A
:104C50004C630208FEF75ABD00220260704770479D
:104C6000704704387047704710B5102104461EF095
:104C7000D3FC204610BDA0F10400F5E700228260BD
:104C8000024A026018324260C1607047247502080F
:104C900008B50CF009F8BDE80840FEF75FBC7047A6
:104CA0000F4B70B50446036042F2945540F2B4666F
:104CB000B54205D0635960191B689847343DF7E742
:104CC0004FF4D06540F27C56635960191B68343D3F
:104CD0009847B542F8D12046FEF731FF204670BD17
:104CE0004C75020810B50446FFF7DAFF204642F281
:104CF000E4511EF091FC204610BD00220A21C0E9BB
:104D00000022C0E9031282607047000007B5074B1C
:104D10008DF80700186828B100231A460DF1070125
:104D200003F011FD03B05DF804FB00BF383B002029
:104D3000F7B5124F044600F110060025D4E903C070
:104D40002268A16800EB820005EB800007EBC0023F
:104D50000FFA8CF3526812FB0C1257F8301060688F
:104D6000009311FB0C0112B256F8040F09B2013581
:104D7000FEF7FEF9042DE1D103B0F0BD8C750208F9
:104D8000F8B506ADC0E9001255F8044BC0E902348D
:104D90000446002344F8103F072391FBF3F3C3EBD1
:104DA000C303C91A0622124B51435E185B5C72782A
:104DB000F178120242EA0342B3781A4333791B02B4
:104DC00043EA014371790B4342F07F4243F07F4352
:104DD00000F12006022755F8041B44F8041FB442D2
:104DE000C1E90A230F86F6D1FFF7A2FFF8BD00BF85
:104DF0000C79020810B444680C4481684460114482
:104E00005DF8044B8160FFF793BF0368012B0BD063
:104E100003690133594201F0030103F0030358BF52
:104E20004B420361FFF784BF704710B5044605206D
:104E3000FFF76CFF012384F88D34002384F8593385
:104E400084F8893284F8E93084F8B93184F8293457
:104E500004F5F75284F80D3734349442FAD110BD7A
:104E600010B50446FDF740FB0723B0FBF3F3C3EB9B
:104E7000C303C31A03F6721354F8230010BD01F5DF
:104E8000DD6301F5175130B508310022012493F894
:104E9000255045B9032A40F8223002F1010583F874
:104EA000254003D02A4634338B42F0D130BD00F583
:104EB000175C2DE9F0470CF1080C03F110070446CC
:104EC000203357F8041FB1F904E0B1F90690BEF1A0
:104ED000000F2ADBB1F908507544F02D25DCB1F93B
:104EE0000A604E44FA2E20DC04F5DD6292F82500BB
:104EF00098B1914211D0B2F904A055450DDDB2F937
:104F00000880D044F04508DDB2F906A0564504DD1E
:104F1000B2F90A80D044C84505DC34329445E5D165
:104F20009F42CED10020BDE8F0870120FBE72DE9AC
:104F3000F04190F8E4368AB0044663BB90F88D7473
:104F40004FBBFFF78DFF2146804606A8FFF797FF6E
:104F50000FC801AE86E80F0004F5D8651423284673
:104F6000009378223B464146FFF70AFF2B463A461C
:104F700078212046FFF79BFF251D40B12046FFF713
:104F800054FF28460AB0BDE8F0410CF075BF01237C
:104F900084F8E436F5E70AB0BDE8F0812DE9F04188
:104FA00090F8E45604460F4690469DB100F5D86649
:104FB0003046FFF71FFFD4F8C826D4F8C41633468E
:104FC0002046FFF774FF48B1C8F10002794230462D
:104FD000FFF710FF00252846BDE8F081201D0CF0EA
:104FE0004BFFF8E710B50446142200212046FFF7D6
:104FF000D5FF0028F8D1BDE810400320FFF786BE9A
:1050000008B500226FF01301FFF7C8FF20B1BDE81B
:1050100008400120FFF77ABE08BD08B50022142120
:10502000FFF7BCFF20B1BDE808400120FFF76EBECE
:1050300008BD38B590F8E4360446F3B100F5D865FC
:105040002846FFF7E2FED4F8C826D4F8C4162B464B
:105050002046FFF72CFF40B12846FFF7D6FE284632
:10506000FFF7D3FE2846FFF7D0FE0220FFF74EFEE3
:10507000201DBDE838400CF0FFBE38BDFFF7D9BF9A
:1050800037B51E4D0446286803F0BEFB38B34FF019
:10509000FF33286800220DF1070103F085FB9DF81E
:1050A0000730443B0E2B1AD8DFE803F01B191919FF
:1050B00019191919082419161919130000226FF06B
:1050C00013012046FFF76AFF48B10120FFF71EFEDB
:1050D00005E000221421F4E72046FFF7AAFF03B001
:1050E00030BD142200212046FFF758FF0028F8D1D8
:1050F0000320EBE7E06BFFF7CBFDF0E73C3B002044
:105100002DE9F04F87B000230F4601F10B02044652
:105110008DF817300DF1170112F801090B7808B15D
:105120000133DBB2BA4201F8013DF5D104F517595C
:1051300004F5DD6009F108094FF0140A4FF0000B87
:1051400090F825307BB1B0F9062092FBFAF6F6B262
:1051500004EB0608BB5D83B380F825B098F8B4363D
:10516000013B88F8B43634304845E9D1B4F8AC2571
:105170009DF80C3003FB0322A4F8AC2513B10420E6
:10518000FFF7C4FDB4F8AC351B4A042104F5B06048
:105190000FF040F9194AB4F8AC351188994206D29B
:1051A00013800421144A04F5B1600FF033F9201D77
:1051B00007B0BDE8F04F0CF05FBE06F118036B447A
:1051C000B0F9041013F80C5C019005EB850302EBB9
:1051D0008302036812B29B6D984798F8B436019821
:1051E0003544013B254488F8B43695F8B43601338C
:1051F00085F8B436B7E700BF4C6302082C3B0020AB
:10520000F0B590F8A435013385B080F8A435D0F816
:10521000A83504460133C0F8A835FFF731FF94F8EC
:10522000A435272B3ED9D4F8A03594F8E4560021B4
:10523000013384F8A415C4F8A0359DB31422204688
:10524000FFF7ACFE70BBCDE90100039004F5DA6115
:1052500004F5DC674FF0140C4FF0010E51F8043FD9
:10526000B3F9063093FBFCF3E61896F8B426013246
:10527000D2B20C2A01BF10336B44284603F80CEC61
:10528000B94286F8B426E9D118B101A92046FFF742
:1052900037FF0023204684F8E43605B0BDE8F0402F
:1052A000FFF745BE05B0F0BD2DE9F84304460025E3
:1052B000FEF796FEDFF8D0902F4B2360C4F8A05580
:1052C00084F8A455C4F8A855A4F8AC5504F5B666FE
:1052D00004F2B4673046FEF7FFFD343646F8349CDE
:1052E00046F8085C26F8045CBE42F3D1C4F8B45614
:1052F00004F5D860C6E9015504F5DD6704F51758D3
:10530000FFF7FBFC08F1080884F8E45600263D4648
:105310002846FEF7E1FD343545F8349C45F8086C25
:1053200025F8046C4545F3D1144E0FCE04F51755FE
:1053300008350FC596E80700261D85E807000025FB
:105340003946304605F0BAF9343707F80F5C47455F
:10535000F6D1B4F8AC350A4A042104F5B0600FF078
:1053600059F8084B064A1B88042104F5B1600FF078
:1053700051F82046BDE8F8834C750208E454020851
:105380004C6302082C3B0020607D02082DE9F743A6
:10539000074600F5B66427254FF0FA090FFA85F89D
:1053A0000022204602234146CDF80090FDF7E0FEA2
:1053B0004FF0FF33C4E90A33142384F826303E1D2E
:1053C000012323862146304605F078F923682835E5
:1053D00020469B6D00224146ADB29847EF2D04F167
:1053E0003404DBD1304603B0BDE8F0430CF044BDDB
:1053F00010B50446FEF7A4FB2046FFF7C7FF204682
:10540000BDE81040FFF793BDF02070474FF4A07047
:1054100070472920FDF7F2B82820FDF7EFB808B54E
:10542000FDF7C0F8CA20FDF7E9F8C320FDF7CAF878
:105430000820FDF7C7F85020FDF7C4F8CF20FDF78E
:10544000DDF80020FDF7BEF8C120FDF7BBF83020E5
:10545000FDF7B8F8ED20FDF7D1F86420FDF7B2F8BC
:105460000320FDF7AFF81220FDF7ACF88120FDF71F
:10547000A9F8E820FDF7C2F88520FDF7A3F8002081
:10548000FDF7A0F87820FDF79DF8CB20FDF7B6F8E2
:105490003920FDF797F82C20FDF794F80020FDF750
:1054A00091F83420FDF78EF80220FDF78BF8F720F5
:1054B000FDF7A4F82020FDF785F8EA20FDF79EF817
:1054C0000020FDF77FF80020FDF77CF8B120FDF704
:1054D00095F80020FDF776F81B20FDF773F8B6204D
:1054E000FDF78CF80A20FDF76DF8A220FDF76AF8A9
:1054F000C020FDF783F81020FDF764F8C120FDF708
:105500007DF81020FDF75EF8C520FDF777F84520FF
:10551000FDF758F81520FDF755F8C720FDF76EF890
:105520009020FDF74FF83620FDF768F8C820FDF70A
:1055300049F8F220FDF762F80020FDF743F8B020AB
:10554000FDF75CF8C220FDF73DF8B620FDF756F8F0
:105550000A20FDF737F8A720FDF734F82720FDF7DC
:1055600031F80420FDF72EF82A20FDF747F8002037
:10557000FDF728F80020FDF725F80020FDF722F8B8
:10558000EF20FDF71FF82B20FDF738F80020FDF77E
:1055900019F80020FDF716F80120FDF713F83F2059
:1055A000FDF710F8F620FDF729F80120FDF70AF8BD
:1055B0000020FDF707F80620FDF704F82C20FDF782
:1055C0001DF8C820FDF768F82620FDF717F8012020
:1055D000FCF7F8FFE020FDF711F80F20FCF7F2FFD1
:1055E0002920FCF7EFFF2420FCF7ECFF0C20FCF750
:1055F000E9FF0E20FCF7E6FF0920FCF7E3FF4E2051
:10560000FCF7E0FF7820FCF7DDFF3C20FCF7DAFF39
:105610000920FCF7D7FF1320FCF7D4FF0520FCF787
:10562000D1FF1720FCF7CEFF1120FCF7CBFF0020A5
:10563000FCF7C8FFE120FCF7E1FF0020FCF7C2FF08
:105640001620FCF7BFFF1B20FCF7BCFF0420FCF773
:10565000B9FF1120FCF7B6FF0720FCF7B3FF31209C
:10566000FCF7B0FF3320FCF7ADFF4220FCF7AAFFA8
:105670000520FCF7A7FF0C20FCF7A4FF0A20FCF78D
:10568000A1FF2820FCF79EFF2F20FCF79BFF0F2097
:10569000FCF798FF1120FCF7B1FFC820FCF7FCFFD6
:1056A0002920FCF7ABFFBDE808402C20FCF7A6BF83
:1056B00008B5FCF777FF0321D320FCF7BBFF80B2CE
:1056C00008BD10B5C4B2022203212046FCF720FF1A
:1056D0000A20FCF765FF204600220321FCF718FF93
:1056E000BDE810400220FCF75BBF38B50446E4B2C9
:1056F000FCF70CFF00212046FCF722FF01210546A4
:105700002046FCF71DFF40EA052080B238BD10B5E9
:10571000C4B240212046FCF713FF030607D54C21F5
:105720002046FCF70DFF003818BF012010BD0122F4
:105730004B212046FCF7ECFE204600224B21FCF7D3
:10574000E7FE0020F2E773B50423C4B20E46154607
:10575000D7210DEB03022046FCF70CFF019B1BBA7F
:105760001A0DC3F30B23328020462B8001224B21DC
:10577000FCF7CEFE00224B212046FCF7C9FE02B00A
:1057800070BD000010B50A4A1378984204460DD047
:10579000517888420AD00BB141B90123D454FCF7A7
:1057A000B5FE2046BDE81040FFF78BBF10BD00BF1F
:1057B000E83E002010B5C4B209212046FCF7C0FE27
:1057C00040F00102D2B220460921BDE81040FCF7AA
:1057D0009FBE10B5C4B209212046FCF7B1FE0921D5
:1057E00000F0FE022046BDE81040FCF791BE38B53F
:1057F000C4B20D4620460A21FCF7A2FE40EA05028B
:10580000D2B220460A21BDE83840FCF781BE10B56F
:105810000446FCF77CFE20461F21FFF7E8FF2046E8
:10582000BDE81040FFF7C6BF38B5C4B20D462046EC
:105830000A21FCF785FE20EA0502D2B220460A21A1
:10584000BDE83840FCF764BE10B50446FFF7C1FF61
:1058500020461F21BDE81040FFF7E6BF10B5C0B2DB
:105860000C460B21FCF76CFE204010BD1F21FFF7FA
:10587000F5BF0A46C0B20B21FCF74ABE1F21FFF755
:10588000F8BF38B5C4B20D4620461721FCF758FEC4
:1058900020EA0502D2B220461721BDE83840FCF7C5
:1058A00037BE70B5C4B2064604212046FCF748FE58
:1058B000042100F0FB0205462046FCF729FE304695
:1058C000F021FFF7DEFF05F0F80220460421FCF787
:1058D0001FFE492220212046FCF71AFE0220FCF779
:1058E0005FFE204601222121FCF712FE20469A226B
:1058F0004121FCF70DFE204601224A21FCF708FE5B
:10590000204601224B21FCF703FE204600224B21BA
:10591000FCF7FEFD204601225621FCF7F9FD20464A
:1059200001225821FCF7F4FD204601224021FCF71A
:10593000EFFD2046FF220B21FCF7EAFDBDE8704099
:105940000220FCF72DBE0000054BD3F8882042F45E
:105950007002C3F888204FF000629A60704700BF61
:1059600000ED00E008B50B4B1A6842F400721A60B3
:105970001A6842F480621A601A6842F480721A60EF
:10598000032000F02FF80020FDF7C8F8FCF792FE86
:10599000002008BD003C0240034A044B11681B78FC
:1059A0000B441360704700BFEC3E002078000020DD
:1059B000014B1868704700BFEC3E002038B5044624
:1059C000FFF7F6FF631C1CBF054B1B78054618BF8D
:1059D000E418FFF7EDFF431BA342FAD338BD00BF25
:1059E000780000200749CA6822F4E062030212042A
:1059F00003F4E063120C134343F0BF6343F400333A
:105A0000CB60704700ED00E0164B30B5DC68C4F3A6
:105A10000224C4F10703251D042B28BF0423062DEF
:105A20004FF0FF358CBF033C002405FA03F321EA55
:105A30000303A54022EA0502A340002843EA02032B
:105A4000ACBF00F16040084A4FEA0313B8BF00F052
:105A50000F00DBB2AABF00F56140135480F8003399
:105A600030BD00BF00ED00E014ED00E0002807DBD2
:105A7000044A4109012300F01F00834042F821300D
:105A8000704700BF00E100E010B5044650B1437913
:105A900003F0FF0213B90271FCF72CFE01236371BE
:105AA000002010BD0120FCE710B5044620B390F89B
:105AB000393003F0FF021BB980F83820FCF732FEC2
:105AC000022384F83930236861681A6822F440326E
:105AD0000A431A605A6BA16822F007020A435A630C
